:100000000C94DD000C9405010C9405010C94050181
:100010000C9405010C9405010C9405010C94050148
:100020000C9405010C9405010C94A5050C9417067D
:100030000C9405010C9405010C9405010C94050128
:100040000C9405010C9405010C9405010C94050118
:100050000C9405010C9405010C9405010C945508B1
:100060000C9405010C9405010C9405010C940501F8
:100070000C9405010C9405010C9405010C940501E8
:100080000C9405010C9405010C9405010C940501D8
:100090000C9405010C9405010C9405010C940501C8
:1000A0000C9405010C9405010C940501EE02F1027B
:1000B000E002E402E802120312031203F502F9025D
:1000C000FD020303070312030D03000000020009F1
:1000D0000F0000030401000C0000000000000000FD
:1000E000000000000000000000080B0002020201F6
:1000F00000090400000102020000052400100105AF
:1001000024010101042402060524060001070581DB
:100110000310004009040100020A00000007050264
:100120000240000007058302400000040309041296
:10013000010002EF02014041233680000101020369
:100140000141726475696E6F204C4C4300417264CA
:1001500075696E6F204C656F6E6172646F00000090
:100160000000250028002B002E00310000000000B8
:10017000240027002A002D00300004040404040396
:100180000405020202020403020202020606060637
:10019000060604040202020404040802011040805E
:1001A000401020408040800802040180402010025E
:1001B00001108010204040209F0811241FBECFEF67
:1001C000DAE0DEBFCDBF11E0A0E0B1E0EAE5F3E1A7
:1001D00002C005900D92AE35B107D9F721E0AEE52A
:1001E000B1E001C01D92A53EB207E1F710E0CDEDF0
:1001F000D0E004C02197FE010E94A009CC3DD107A8
:10020000C9F70E94D2080C94AB090C94000090E04E
:10021000FC01E756FE4F2491FC01E658FE4F849105
:10022000882399F090E0880F991FFC01E459FE4F54
:10023000A591B491FC01E25AFE4F859194918FB73C
:10024000F894EC91E22BEC938FBF089520917C0100
:10025000211103C08FEF9FEF08955FB7F89422E05C
:100260002093E9002091F20030E01216130614F4F6
:1002700021E030E0422FFC0184E6415038F028981C
:1002800080937B019091F1009193F7CF2115310577
:1002900021F08091F200882319F05FBFC901089511
:1002A0008BE68093E800F9CF2FB7F89483E0809332
:1002B000E9009091E800892F807295FF04C0909129
:1002C000F20080E4891B2FBF089580917301811192
:1002D0000DC082E080936F0184E0809370011092E2
:1002E00072011092710181E0809373018FE691E0B9
:1002F0000895CF93DF931F92CDB7DEB76983DC01FA
:10030000ED91FC910280F381E02D41E050E0BE01CF
:100310006F5F7F4F09950F90DF91CF91089583E034
:100320008093E9008091F200882319F08AE380939A
:10033000E80008950E94540190E00895CF93DF9360
:100340001F92CDB7DEB7FC018485958597FD05C06A
:100350002FEF3FEF358724870BC0CE0101960E9417
:100360002601019719F4898190E002C08FEF9FEF79
:100370000F90DF91CF9108950F931F93CF93DF9349
:100380001F92CDB7DEB78C01FC018485958597FF60
:100390000EC0CE0101960E942601019719F48981B1
:1003A00090E002C08FEF9FEFF80195878487F801F6
:1003B000848595850F90DF91CF911F910F910895BE
:1003C000FC018485958597FD0BC09FB7F89482E06A
:1003D0008093E9008091F2009FBF90E0019608951C
:1003E0009FB7F89482E08093E9008091F2009FBF6C
:1003F00090E008954091690150916A012091670150
:100400003091680142175307B4F49091E800957059
:10041000E1F39091E80092FD19C08093F100809182
:10042000690190916A0101968F739927892B19F4BC
:100430008EEF8093E8008091690190916A010196A6
:1004400090936A018093690181E0089580E00895A6
:10045000DF92EF92FF920F931F93CF93DF93D82EEB
:10046000F92EE42E062F10E0C8010196880F0E9495
:10047000FA0183E00E94FA01CD2DDF2D0C0F1D1F24
:10048000C017D10789F0E7FE03C0FE01849101C0C7
:1004900088810E94FA01F82E80E00E94FA018F21E3
:1004A00021968111EDCF01C081E0DF91CF911F91A5
:1004B0000F91FF90EF90DF900895DF92EF92FF92FF
:1004C0000F931F93CF93DF93D82E8A017B01E40E05
:1004D000F51EEB01CE15DF0571F0D7FE03C0FE015E
:1004E000849101C088810E94FA0121968111F2CF86
:1004F0008FEF9FEF01C0C801DF91CF911F910F9146
:10050000FF90EF90DF9008950F931F93CF93DF93A9
:100510001F92CDB7DEB782E0898342E450E069EEF6
:1005200070E080E80E945D020E946501DC01129685
:100530000D911C9113970115110589F0D801ED91CA
:10054000FC910280F381E02DBE016F5F7F4FC801F7
:10055000099597FD04C0F80100851185ECCF8981CC
:100560000F90DF91CF911F910F910895615030F05E
:100570002091F100FC0120830196F8CF289884E6B1
:1005800080937B010895362F90E0FC01E653FF4FE6
:100590004491FC01E756FE4F2491FC01E658FE4FC2
:1005A0008491882309F452C04423E1F150E0FA0118
:1005B0003197EF30F105B0F5EA5AFF4F0C94A009DE
:1005C000909180009F7707C0909180009F7D03C02D
:1005D00090918000977F9093800024C094B59F777E
:1005E00002C094B59F7D94BD1DC0909190009F77EF
:1005F00007C0909190009F7D03C090919000977FDD
:10060000909390000FC09091C0009F7703C090918D
:10061000C0009F7D9093C00005C09091C200977F5D
:100620009093C200E82FF0E0EE0FFF1FE25AFE4F5A
:10063000A591B4919FB7F894311104C08C91209585
:10064000282302C0EC912E2B2C939FBF08953FB717
:10065000F8948091630190916401A0916501B0913B
:10066000660126B5A89B05C02F3F19F00196A11D74
:10067000B11D3FBFBA2FA92F982F8827820F911D38
:10068000A11DB11DBC01CD0142E0660F771F881F7F
:10069000991F4A95D1F708958F929F92AF92BF927A
:1006A000CF92DF92EF92FF926B017C010E942703B1
:1006B0004B015C01C114D104E104F104F1F00E948A
:1006C0002703DC01CB0188199909AA09BB09883ED7
:1006D0009340A105B10570F321E0C21AD108E108E9
:1006E000F10888EE880E83E0981EA11CB11CC1148D
:1006F000D104E104F10419F7DDCFFF90EF90DF9012
:10070000CF90BF90AF909F908F9008958F929F92BF
:10071000AF92BF92CF92DF92EF92FF920F931F930F
:10072000CF93DF936C017B018A0180910B018823B9
:1007300009F45CC080917C01882309F457C0809142
:100740006E0180FF05C08091E00082608093E00030
:10075000E801B12C8AEFA82E93E0892E2AE3922E8D
:10076000209711F4BB20D9F10E94540181110AC0D5
:10077000AA94AA20D9F161E070E080E090E00E94A4
:100780004C03EECF282F30E0C217D3070CF48C2F88
:100790009FB7F8948092E9002091E80025FF1DC0E2
:1007A000282F30E0C21BD30BF701815020F041917C
:1007B0004093F100FACFE20EF31EBB2019F09092A5
:1007C000E8000AC08091E80085FD07C09092E8002B
:1007D000BB24B394209709F0B12C9FBFC1CF5D9883
:1007E00084E680936D011016110644F081E090E0DC
:1007F000F6019383828380E090E001C0C801DF911D
:10080000CF911F910F91FF90EF90DF90CF90BF900D
:10081000AF909F908F900895CF92DF92EF92FF92CA
:100820000F931F93CF93DF936C017A018B01C0E08C
:10083000D0E0CE15DF0581F0D8016D918D01D60194
:10084000ED91FC910190F081E02DC6010995892B75
:1008500011F02196EECF7E01C701DF91CF911F915C
:100860000F91FF90EF90DF90CF900895CF93DF939B
:10087000EC0160E08E810E94C30261E08E810E94E3
:10088000C30260E08E810E94C3028BE891E0019771
:10089000F1F7DF91CF910895CF92DF92EF92FF921F
:1008A0000F931F93CF93DF936C017C0187E0E80ED9
:1008B000F11CC0E0D0E0062F10E0B8010C2E02C001
:1008C000759567950A94E2F76170F70181917F0150
:1008D0000E94C3022196C430D10579F7C601DF9189
:1008E000CF911F910F91FF90EF90DF90CF900C94DC
:1008F0003604CF92DF92EF92FF920F931F93CF9324
:10090000DF93EC01F62E642F8C810E94C3028D814F
:100910008F3F19F060E00E94C3028F850F2D10E019
:1009200084FF25C06E0187E0C80ED11CE12CF12C9C
:10093000B8010E2C02C0759567950A94E2F76170B4
:10094000F60181916F010E94C302FFEFEF1AFF0AC7
:1009500088E0E816F10461F7CE01DF91CF911F9195
:100960000F91FF90EF90DF90CF900C943604B80178
:1009700084E0759567958A95E1F7CE010E944C0455
:100980006F2DCE01DF91CF911F910F91FF90EF90CE
:10099000DF90CF900C944C0440E0682F8DEC91E0F8
:1009A0000C947904CF93DF93623028F09091DC01AE
:1009B00098609093DC016093E0011092E10190E473
:1009C0009093E2018093E30190E0805C9F4F8093DD
:1009D000E4018091D1010E9407018091D2018F3FF3
:1009E00011F00E9407018091D3010E940701CDEC14
:1009F000D1E09E012D5C31408091DC0184FD03C07B
:100A000084E090E002C088E090E021962817390742
:100A100024F48E810E940701ECCF8BE39DE00197C7
:100A2000F1F760E08091D1010E94C30260E0809103
:100A3000D3010E94C3028091D2018F3F19F060E080
:100A40000E94C3028091DC0184FD20C063E08DEC34
:100A500091E00E944C04CBE4D6E4CE010197F1F77B
:100A600063E08DEC91E00E944C042197F1F763E084
:100A70008DEC91E00E944C0483E592E00197F1F740
:100A800062E08DEC91E00E944C0415C080620E94EF
:100A9000CC048BE496E40197F1F78091DC0180624D
:100AA0000E94CC0483E592E00197F1F78091DC018C
:100AB00080620E94CC048091DC0180620E94CC04A0
:100AC00084E08093DD018CE00E94CC0481E00E94F0
:100AD000CC048BE39FE10197F1F782E08093DE0184
:100AE00086E0DF91CF910C94CC04643008F063E091
:100AF0009091E001691710F06FEF690FE62FF0E0B9
:100B0000E353FE4F9489890F80680C94CC0441E034
:100B10000E94790481E090E00895089580E090E0DB
:100B20000895009769F0FC0101900020E9F73197E2
:100B3000AF01481B590BBC018DEC91E00C940C04E7
:100B400080E090E008950E94A6091F920F920FB6D0
:100B50000F9211248F939F938091E1009091E10077
:100B6000937F9093E10083FF0FC01092E90091E022
:100B70009093EB001092EC0092E39093ED001092B2
:100B80007C0198E09093F00082FF20C093E0909366
:100B9000E9009091F200992319F09AE39093E8000C
:100BA00090916D01992339F090916D01915090933E
:100BB0006D01992389F190917B01992339F09091EE
:100BC0007B01915090937B01992341F184FF10C0E8
:100BD0008091E2008E7E81608093E2008091E1004E
:100BE0008F7E8093E10080916E018E7E806111C0C6
:100BF00080FF16C08091E2008E7E80618093E200CB
:100C00008091E1008E7E8093E10080916E018E7E66
:100C1000816080936E0104C05D9ACDCF289AD6CFB3
:100C20009F918F910F900FBE0F901F9018951F925C
:100C30000F920FB60F921124CF92DF92EF92FF9294
:100C40000F931F932F933F934F935F936F937F93D4
:100C50008F939F93AF93BF93EF93FF93CF93DF93C4
:100C6000CDB7DEB76C97DEBFCDBF1092E9008091A3
:100C7000E80083FFFBC168E0CE0145960E94B60202
:100C800082EF8093E8008D8987FF05C09091E8008E
:100C900090FFFCCF03C09EEF9093E800982F9076D2
:100CA00009F0C6C09E894F89588D2F89F88C911103
:100CB0000CC0803829F480916C018093F10002C04F
:100CC0001092F1001092F10045C1913051F4811160
:100CD00041C14130510509F03DC180916C018D7FCA
:100CE0000BC0933061F4811135C14130510509F0D9
:100CF00031C180916C01826080936C012BC1953071
:100D000049F48091E80080FFFCCF822F80688093B7
:100D1000E30020C1963009F05EC00B8D1C8D22E0EF
:100D20001092E90010926A0110926901F21232C029
:100D300010926801109267010E94840299E0BE013E
:100D40006F5F7F4FDB01E92F1D92EA95E9F79983E9
:100D5000FA8291E09E8390EA98879AEF9987209192
:100D6000690130916A01275F3F4F3C832B838D835C
:100D70001092E90010926A011092690110936801C3
:100D80000093670149E050E080E00E945D020E940C
:100D90008402E0C010936801009367010E9465011E
:100DA000DC0112960D911C9113970115110509F4A0
:100DB000BBC0D801ED91FC910480F581E02DBE010E
:100DC0006B5E7F4FC8010995009709F0C7C0F80115
:100DD00000851185EACF973009F445C1983021F498
:100DE00081E08093F100B6C0993009F0B3C0837000
:100DF00009F039C1EDE0F1E081E031E096E32081D6
:100E0000211109C08EE78093EA001092EA008F89D1
:100E100080937C019FC08093E9003093EB00219187
:100E20002093EC009093ED008F5F873041F7EACF7D
:100E30008B8D9C8D1092E90010926A0110926901CD
:100E40009093680180936701898D811153C08E89C9
:100E50009D89913A49F4813209F005C147E050E09B
:100E600064E071E080E0BBC0913209F0FCC08332E5
:100E700069F48F89988DA0E0B0E080930001909391
:100E80000101A0930201B093030164C0803269F4B0
:100E90008091E80082FFFCCF67E084E091E00E944F
:100EA000B6028BEF8093E80055C0823209F052C041
:100EB0008F8980930B01EEEFFFE7859194918B3F33
:100EC0009C4D19F0E0E0F8E002C0EEEFFAE080910E
:100ED000040190910501A0910601B0910701803BAA
:100EE0009440A105B10509F09EC080910B0180FFDF
:100EF00079C099C00E946501FC010281138101152E
:100F0000110509F4B0C0D801ED91FC910190F08178
:100F1000E02DBE016B5E7F4FC801099581111AC09B
:100F2000F80100851185EBCFF1E0FF1609F44EC002
:100F3000F3E0FF1298C08F89882309F44AC08230F9
:100F400089F440E860E18DE491E00E942802882362
:100F500009F489C08EEF8093E80088C0181619063E
:100F6000CCF381C0813029F440E86BE081E491E06A
:100F7000ECCF833009F077C00E946501DC01129646
:100F8000ED90FC9013978E010F5F1F4F6801E114E5
:100F9000F10479F0D701ED91FC910680F781E02D05
:100FA000B801C7010995080F111DF701E084F1840C
:100FB000EECFD8011C92F60101900020E9F731979D
:100FC000BF016C197D0940E0C601BFCF6FE271E03F
:100FD00002C06BE271E0FB01449150E080E80E94A6
:100FE0005D02B8CFEE3F2AE0F20751F08081918197
:100FF0008737A7E79A0721F09093FF0A8093FE0AAC
:1010000087E797E7918380838091600080936B01ED
:101010009BE088E10FB6F894A895809360000FBE1E
:101020009093600097CF808191818737974709F02F
:1010300091CFA89580916000886180936000809135
:101040006B0180936000EE3FBAE0FB0739F08091BE
:10105000FE0A9091FF0A918380837CCF1092FF0A51
:101060001092FE0A77CF81E28093EB006C960FB668
:10107000F894DEBF0FBECDBFDF91CF91FF91EF910E
:10108000BF91AF919F918F917F916F915F914F91A0
:101090003F912F911F910F91FF90EF90DF90CF9094
:1010A0000F900FBE0F901F9018951F920F920FB6C2
:1010B0000F9211242F933F938F939F93AF93BF93DE
:1010C00080915F0190916001A0916101B0916201F6
:1010D00030915E0123E0230F2D3720F40196A11DEE
:1010E000B11D05C026E8230F0296A11DB11D209356
:1010F0005E0180935F0190936001A0936101B093C2
:1011000062018091630190916401A0916501B091A9
:1011100066010196A11DB11D809363019093640146
:10112000A0936501B0936601BF91AF919F918F919C
:101130003F912F910F900FBE0F901F901895EDE7E4
:10114000F1E01382128288EE93E0A0E0B0E08483A5
:101150009583A683B78387E191E0918380838FEFA6
:101160009FEF95878487EDECF1E01382128289E28C
:1011700091E09183808382E084838FEF858383E095
:10118000868384E0878385E0808786E0818787E0A7
:1011900082871386148615861686178661E080E19D
:1011A0000C94D204789484B5826084BD84B5816047
:1011B00084BD85B5826085BD85B5816085BD809122
:1011C0006E00816080936E0010928100809181009A
:1011D0008260809381008091810081608093810092
:1011E0008091800081608093800080919100826076
:1011F0008093910080919100816080939100809113
:1012000090008160809390008091C1008460809301
:10121000C1008091C10082608093C1008091C100B3
:1012200081608093C1008091C30081608093C3007E
:101230008091C00082608093C0008091C200816074
:101240008093C20080917A00846080937A008091BC
:101250007A00826080937A0080917A008160809326
:101260007A0080917A00806880937A0010927C01E5
:1012700010926C0110926E018091D7008160809372
:10128000D70080EA8093D80089B5806189BD89B58F
:10129000826089BD09B400FEFDCF61E070E080E0AE
:1012A00090E00E944C038091D8008F7C80618093F5
:1012B000D8008091E000807F8093E0008091E10081
:1012C0008E7E8093E1008DE08093E200559A209A13
:1012D00081E00E94CC048BE39FE10197F1F764EF7A
:1012E00071E080E090E00E944C0364E084E10E94A1
:1012F000D20460E080E00E94750581E391E00E94E5
:10130000910561E082E00E9475058AE391E00E9408
:10131000910562E082E00E9475058AE491E00E94F6
:10132000910564E083E10E9475058CE591E00E94DF
:101330009105C0E0D0E02097F1F30E940000FBCFC0
:10134000EE0FFF1F0590F491E02D099481E090E0ED
:0A135000F8940C94AB09F894FFCF59
:10135A00FFFFFFFF00E100000000000000C18081E4
:10136A0000000000000000790186039A018F01E065
:10137A00019E01BC010000000087050C048E058D4A
:10138A00056A7573744354467B00306C645F356339
:10139A006830306C5F4C44435F00643135706C34A4
:0E13AA0079355F3472335F6330306C007D0044
:00000001FF
